{
  "address": "0xC783D782AB1e8f1E06779CF8f89DE81C46479Cdc",
  "abi": [
    {
      "anonymous": false,
      "inputs": [
        {
          "indexed": false,
          "internalType": "address",
          "name": "token",
          "type": "address"
        }
      ],
      "name": "CexAddressAdded",
      "type": "event"
    },
    {
      "anonymous": false,
      "inputs": [
        {
          "indexed": false,
          "internalType": "address",
          "name": "token",
          "type": "address"
        }
      ],
      "name": "CexAddressRemoved",
      "type": "event"
    },
    {
      "anonymous": false,
      "inputs": [
        {
          "indexed": false,
          "internalType": "address",
          "name": "user",
          "type": "address"
        },
        {
          "indexed": false,
          "internalType": "address",
          "name": "token",
          "type": "address"
        },
        {
          "indexed": false,
          "internalType": "uint256",
          "name": "amount",
          "type": "uint256"
        }
      ],
      "name": "Deposited",
      "type": "event"
    },
    {
      "anonymous": false,
      "inputs": [
        {
          "indexed": true,
          "internalType": "address",
          "name": "previousOwner",
          "type": "address"
        },
        {
          "indexed": true,
          "internalType": "address",
          "name": "newOwner",
          "type": "address"
        }
      ],
      "name": "OwnershipTransferred",
      "type": "event"
    },
    {
      "anonymous": false,
      "inputs": [
        {
          "indexed": false,
          "internalType": "address",
          "name": "token",
          "type": "address"
        },
        {
          "indexed": false,
          "internalType": "address",
          "name": "cexAddress",
          "type": "address"
        },
        {
          "indexed": false,
          "internalType": "uint256",
          "name": "amount",
          "type": "uint256"
        }
      ],
      "name": "TokenWithdrawn",
      "type": "event"
    },
    {
      "anonymous": false,
      "inputs": [
        {
          "indexed": false,
          "internalType": "address",
          "name": "token",
          "type": "address"
        }
      ],
      "name": "WhitelistTokenAdded",
      "type": "event"
    },
    {
      "anonymous": false,
      "inputs": [
        {
          "indexed": false,
          "internalType": "address",
          "name": "token",
          "type": "address"
        }
      ],
      "name": "WhitelistTokenRemoved",
      "type": "event"
    },
    {
      "anonymous": false,
      "inputs": [
        {
          "indexed": false,
          "internalType": "address",
          "name": "trigger",
          "type": "address"
        }
      ],
      "name": "WithdrawTriggerAdded",
      "type": "event"
    },
    {
      "anonymous": false,
      "inputs": [
        {
          "indexed": false,
          "internalType": "address",
          "name": "trigger",
          "type": "address"
        }
      ],
      "name": "WithdrawTriggerRemoved",
      "type": "event"
    },
    {
      "inputs": [
        {
          "internalType": "address",
          "name": "cexAddress",
          "type": "address"
        }
      ],
      "name": "addCexAddress",
      "outputs": [],
      "stateMutability": "nonpayable",
      "type": "function"
    },
    {
      "inputs": [
        {
          "internalType": "address",
          "name": "token",
          "type": "address"
        }
      ],
      "name": "addWhitelistedToken",
      "outputs": [],
      "stateMutability": "nonpayable",
      "type": "function"
    },
    {
      "inputs": [
        {
          "internalType": "address",
          "name": "trigger",
          "type": "address"
        }
      ],
      "name": "addWithdrawTrigger",
      "outputs": [],
      "stateMutability": "nonpayable",
      "type": "function"
    },
    {
      "inputs": [
        {
          "internalType": "address",
          "name": "",
          "type": "address"
        }
      ],
      "name": "cexAddressList",
      "outputs": [
        {
          "internalType": "bool",
          "name": "",
          "type": "bool"
        }
      ],
      "stateMutability": "view",
      "type": "function"
    },
    {
      "inputs": [
        {
          "internalType": "address",
          "name": "token",
          "type": "address"
        },
        {
          "internalType": "uint256",
          "name": "amount",
          "type": "uint256"
        }
      ],
      "name": "deposit",
      "outputs": [],
      "stateMutability": "payable",
      "type": "function"
    },
    {
      "inputs": [],
      "name": "owner",
      "outputs": [
        {
          "internalType": "address",
          "name": "",
          "type": "address"
        }
      ],
      "stateMutability": "view",
      "type": "function"
    },
    {
      "inputs": [
        {
          "internalType": "address",
          "name": "cexAddress",
          "type": "address"
        }
      ],
      "name": "removeCexAddress",
      "outputs": [],
      "stateMutability": "nonpayable",
      "type": "function"
    },
    {
      "inputs": [
        {
          "internalType": "address",
          "name": "token",
          "type": "address"
        }
      ],
      "name": "removeWhitelistToken",
      "outputs": [],
      "stateMutability": "nonpayable",
      "type": "function"
    },
    {
      "inputs": [
        {
          "internalType": "address",
          "name": "trigger",
          "type": "address"
        }
      ],
      "name": "removeWithdrawTrigger",
      "outputs": [],
      "stateMutability": "nonpayable",
      "type": "function"
    },
    {
      "inputs": [],
      "name": "renounceOwnership",
      "outputs": [],
      "stateMutability": "nonpayable",
      "type": "function"
    },
    {
      "inputs": [
        {
          "internalType": "contract IUtNft",
          "name": "utNft_",
          "type": "address"
        }
      ],
      "name": "setUtNft",
      "outputs": [],
      "stateMutability": "nonpayable",
      "type": "function"
    },
    {
      "inputs": [
        {
          "internalType": "address",
          "name": "newOwner",
          "type": "address"
        }
      ],
      "name": "transferOwnership",
      "outputs": [],
      "stateMutability": "nonpayable",
      "type": "function"
    },
    {
      "inputs": [],
      "name": "utNft",
      "outputs": [
        {
          "internalType": "contract IUtNft",
          "name": "",
          "type": "address"
        }
      ],
      "stateMutability": "view",
      "type": "function"
    },
    {
      "inputs": [
        {
          "internalType": "address",
          "name": "",
          "type": "address"
        }
      ],
      "name": "whitelistToken",
      "outputs": [
        {
          "internalType": "bool",
          "name": "",
          "type": "bool"
        }
      ],
      "stateMutability": "view",
      "type": "function"
    },
    {
      "inputs": [
        {
          "internalType": "address",
          "name": "token",
          "type": "address"
        },
        {
          "internalType": "address",
          "name": "cexAddress",
          "type": "address"
        },
        {
          "internalType": "uint256",
          "name": "amount",
          "type": "uint256"
        }
      ],
      "name": "withdrawTokenToCex",
      "outputs": [],
      "stateMutability": "nonpayable",
      "type": "function"
    },
    {
      "inputs": [
        {
          "internalType": "address",
          "name": "",
          "type": "address"
        }
      ],
      "name": "withdrawTriggerList",
      "outputs": [
        {
          "internalType": "bool",
          "name": "",
          "type": "bool"
        }
      ],
      "stateMutability": "view",
      "type": "function"
    }
  ],
  "transactionHash": "0x9e381351c93f780214b580a1d121792430d9096cb95a8f194102f266714e22fc",
  "args": [],
  "numDeployments": 4,
  "solcInputHash": "a195d479353e0b4ac4a649730ed9db07",
  "bytecode": "0x608060405234801561001057600080fd5b5061001a3361001f565b61006f565b600080546001600160a01b038381166001600160a01b0319831681178455604051919092169283917f8be0079c531659141344cd1fd0a4f28419497f9722a3daafe3b4186f6b6457e09190a35050565b6110d28061007e6000396000f3fe6080604052600436106100f35760003560e01c80636d2590031161008a578063baaa89b311610059578063baaa89b3146102b9578063e9ee9107146102d9578063f2fde38b146102f9578063f68d3c7f1461031957600080fd5b80636d25900314610222578063715018a6146102525780638da5cb5b146102675780639a6339261461029957600080fd5b806347e7ef24116100c657806347e7ef241461019f5780634c6f01c0146101b25780635df38f07146101d25780636247f6f2146101f257600080fd5b80631c216255146100f85780633066719b1461013d578063363cb34d1461015f5780633d6bd95a1461017f575b600080fd5b34801561010457600080fd5b50610128610113366004610fb0565b60026020526000908152604090205460ff1681565b60405190151581526020015b60405180910390f35b34801561014957600080fd5b5061015d610158366004610fb0565b610339565b005b34801561016b57600080fd5b5061015d61017a366004610fb0565b61043a565b34801561018b57600080fd5b5061015d61019a366004610fb0565b610530565b61015d6101ad366004610fd4565b610623565b3480156101be57600080fd5b5061015d6101cd366004610fb0565b6107f7565b3480156101de57600080fd5b5061015d6101ed366004610fb0565b6108a9565b3480156101fe57600080fd5b5061012861020d366004610fb0565b60016020526000908152604090205460ff1681565b34801561022e57600080fd5b5061012861023d366004610fb0565b60036020526000908152604090205460ff1681565b34801561025e57600080fd5b5061015d61099c565b34801561027357600080fd5b506000546001600160a01b03165b6040516001600160a01b039091168152602001610134565b3480156102a557600080fd5b5061015d6102b4366004611000565b6109f0565b3480156102c557600080fd5b50600454610281906001600160a01b031681565b3480156102e557600080fd5b5061015d6102f4366004610fb0565b610caa565b34801561030557600080fd5b5061015d610314366004610fb0565b610d9d565b34801561032557600080fd5b5061015d610334366004610fb0565b610e56565b6000546001600160a01b031633146103865760405162461bcd60e51b8152602060048201819052602482015260008051602061107d83398151915260448201526064015b60405180910390fd5b6001600160a01b03811660009081526002602052604090205460ff16156103df5760405162461bcd60e51b815260206004820152600d60248201526c105b1c9958591e481859191959609a1b604482015260640161037d565b6001600160a01b038116600081815260026020908152604091829020805460ff1916600117905590519182527f7c3545f7ba2f579fec8a7accbd9fe30746bce00d58778447cb8b0f5eb869d02591015b60405180910390a150565b6000546001600160a01b031633146104825760405162461bcd60e51b8152602060048201819052602482015260008051602061107d833981519152604482015260640161037d565b6001600160a01b03811660009081526001602052604090205460ff16156104db5760405162461bcd60e51b815260206004820152600d60248201526c105b1c9958591e481859191959609a1b604482015260640161037d565b6001600160a01b038116600081815260016020818152604092839020805460ff191690921790915590519182527f3c96ec6d36b4038b363b8d7e8ad3b2fc7204f60317b8d0a4082094b6295fff2c910161042f565b6000546001600160a01b031633146105785760405162461bcd60e51b8152602060048201819052602482015260008051602061107d833981519152604482015260640161037d565b6001600160a01b03811660009081526002602052604090205460ff166105d25760405162461bcd60e51b815260206004820152600f60248201526e105b1c9958591e481c995b5bdd9959608a1b604482015260640161037d565b6001600160a01b038116600081815260026020908152604091829020805460ff1916905590519182527f6ff7bfeab9a77e43e6125effd961cecdc2a7c3767aba989597afa8db4fe2c50d910161042f565b6001600160a01b03821660009081526001602052604090205460ff166106835760405162461bcd60e51b81526020600482015260156024820152742737ba103bb434ba32b634b9ba32b2103a37b5b2b760591b604482015260640161037d565b600081116106c45760405162461bcd60e51b815260206004820152600e60248201526d416d6f756e74206973207a65726f60901b604482015260640161037d565b6040516323b872dd60e01b8152336004820152306024820152604481018290526001600160a01b038316906323b872dd906064016020604051808303816000875af1158015610717573d6000803e3d6000fd5b505050506040513d601f19601f8201168201806040525081019061073b9190611041565b5060048054604051636361ddf360e11b815233928101929092526001600160a01b03848116602484015260448301849052169063c6c3bbe690606401600060405180830381600087803b15801561079157600080fd5b505af11580156107a5573d6000803e3d6000fd5b5050604080513381526001600160a01b03861660208201529081018490527f8752a472e571a816aea92eec8dae9baf628e840f4929fbcc2d155e6233ff68a79250606001905060405180910390a15050565b6000546001600160a01b0316331461083f5760405162461bcd60e51b8152602060048201819052602482015260008051602061107d833981519152604482015260640161037d565b6001600160a01b0381166108875760405162461bcd60e51b815260206004820152600f60248201526e41646472657373206973207a65726f60881b604482015260640161037d565b600480546001600160a01b0319166001600160a01b0392909216919091179055565b6000546001600160a01b031633146108f15760405162461bcd60e51b8152602060048201819052602482015260008051602061107d833981519152604482015260640161037d565b6001600160a01b03811660009081526003602052604090205460ff1661094b5760405162461bcd60e51b815260206004820152600f60248201526e105b1c9958591e481c995b5bdd9959608a1b604482015260640161037d565b6001600160a01b038116600081815260026020908152604091829020805460ff1916905590519182527f109dd2cba3d7a5889f7094b603205df06682965951c98b8de3af3d9d7b881bf5910161042f565b6000546001600160a01b031633146109e45760405162461bcd60e51b8152602060048201819052602482015260008051602061107d833981519152604482015260640161037d565b6109ee6000610f4b565b565b3360009081526003602052604090205460ff16610a4f5760405162461bcd60e51b815260206004820152601c60248201527f4e6f742063616c6c65642066726f6d206e667420636f6e747261637400000000604482015260640161037d565b6001600160a01b03831660009081526001602052604090205460ff16610aaf5760405162461bcd60e51b81526020600482015260156024820152742737ba103bb434ba32b634b9ba32b2103a37b5b2b760591b604482015260640161037d565b6001600160a01b03821660009081526002602052604090205460ff16610b175760405162461bcd60e51b815260206004820152601a60248201527f4e6f742072656769737465726564206365782061646472657373000000000000604482015260640161037d565b6040516370a0823160e01b81523060048201526000906001600160a01b038516906370a0823190602401602060405180830381865afa158015610b5e573d6000803e3d6000fd5b505050506040513d601f19601f82011682018060405250810190610b829190611063565b9050808211610b915781610b93565b805b915060008211610be55760405162461bcd60e51b815260206004820152601f60248201527f546f6b656e2062616c616e6365206f7220616d6f756e74206973207a65726f00604482015260640161037d565b60405163a9059cbb60e01b81526001600160a01b0384811660048301526024820184905285169063a9059cbb906044016020604051808303816000875af1158015610c34573d6000803e3d6000fd5b505050506040513d601f19601f82011682018060405250810190610c589190611041565b50604080516001600160a01b038087168252851660208201529081018390527f8210728e7c071f615b840ee026032693858fbcd5e5359e67e438c890f59e56209060600160405180910390a150505050565b6000546001600160a01b03163314610cf25760405162461bcd60e51b8152602060048201819052602482015260008051602061107d833981519152604482015260640161037d565b6001600160a01b03811660009081526001602052604090205460ff16610d4c5760405162461bcd60e51b815260206004820152600f60248201526e105b1c9958591e481c995b5bdd9959608a1b604482015260640161037d565b6001600160a01b038116600081815260016020908152604091829020805460ff1916905590519182527fbf177da1e36ec8947194f85f43e7347ce10e6b8df028d925a1a98f2c1c9f7bc8910161042f565b6000546001600160a01b03163314610de55760405162461bcd60e51b8152602060048201819052602482015260008051602061107d833981519152604482015260640161037d565b6001600160a01b038116610e4a5760405162461bcd60e51b815260206004820152602660248201527f4f776e61626c653a206e6577206f776e657220697320746865207a65726f206160448201526564647265737360d01b606482015260840161037d565b610e5381610f4b565b50565b6000546001600160a01b03163314610e9e5760405162461bcd60e51b8152602060048201819052602482015260008051602061107d833981519152604482015260640161037d565b6001600160a01b03811660009081526003602052604090205460ff1615610ef75760405162461bcd60e51b815260206004820152600d60248201526c105b1c9958591e481859191959609a1b604482015260640161037d565b6001600160a01b038116600081815260026020908152604091829020805460ff1916600117905590519182527f28063a8dc4691c983baf46c0d0dde7badb1a84c05c40f34adec0ea2f9a82cca3910161042f565b600080546001600160a01b038381166001600160a01b0319831681178455604051919092169283917f8be0079c531659141344cd1fd0a4f28419497f9722a3daafe3b4186f6b6457e09190a35050565b6001600160a01b0381168114610e5357600080fd5b600060208284031215610fc257600080fd5b8135610fcd81610f9b565b9392505050565b60008060408385031215610fe757600080fd5b8235610ff281610f9b565b946020939093013593505050565b60008060006060848603121561101557600080fd5b833561102081610f9b565b9250602084013561103081610f9b565b929592945050506040919091013590565b60006020828403121561105357600080fd5b81518015158114610fcd57600080fd5b60006020828403121561107557600080fd5b505191905056fe4f776e61626c653a2063616c6c6572206973206e6f7420746865206f776e6572a2646970667358221220bd09ae43239933648c8263ff687655535a3823618169bc312c11385e991a7a8364736f6c634300080d0033",
  "devdoc": {
    "kind": "dev",
    "methods": {
      "owner()": {
        "details": "Returns the address of the current owner."
      },
      "renounceOwnership()": {
        "details": "Leaves the contract without owner. It will not be possible to call `onlyOwner` functions anymore. Can only be called by the current owner. NOTE: Renouncing ownership will leave the contract without an owner, thereby removing any functionality that is only available to the owner."
      },
      "transferOwnership(address)": {
        "details": "Transfers ownership of the contract to a new account (`newOwner`). Can only be called by the current owner."
      }
    },
    "version": 1
  },
  "userdoc": {
    "kind": "user",
    "methods": {},
    "version": 1
  },
  "storageLayout": {
    "storage": [
      {
        "astId": 7,
        "contract": "contracts/Deposit.sol:Deposit",
        "label": "_owner",
        "offset": 0,
        "slot": "0",
        "type": "t_address"
      },
      {
        "astId": 2259,
        "contract": "contracts/Deposit.sol:Deposit",
        "label": "whitelistToken",
        "offset": 0,
        "slot": "1",
        "type": "t_mapping(t_address,t_bool)"
      },
      {
        "astId": 2263,
        "contract": "contracts/Deposit.sol:Deposit",
        "label": "cexAddressList",
        "offset": 0,
        "slot": "2",
        "type": "t_mapping(t_address,t_bool)"
      },
      {
        "astId": 2267,
        "contract": "contracts/Deposit.sol:Deposit",
        "label": "withdrawTriggerList",
        "offset": 0,
        "slot": "3",
        "type": "t_mapping(t_address,t_bool)"
      },
      {
        "astId": 2270,
        "contract": "contracts/Deposit.sol:Deposit",
        "label": "utNft",
        "offset": 0,
        "slot": "4",
        "type": "t_contract(IUtNft)3010"
      }
    ],
    "types": {
      "t_address": {
        "encoding": "inplace",
        "label": "address",
        "numberOfBytes": "20"
      },
      "t_bool": {
        "encoding": "inplace",
        "label": "bool",
        "numberOfBytes": "1"
      },
      "t_contract(IUtNft)3010": {
        "encoding": "inplace",
        "label": "contract IUtNft",
        "numberOfBytes": "20"
      },
      "t_mapping(t_address,t_bool)": {
        "encoding": "mapping",
        "key": "t_address",
        "label": "mapping(address => bool)",
        "numberOfBytes": "32",
        "value": "t_bool"
      }
    }
  }
}